{
  "contractName": "SenryuNFT",
  "abi": [
    {
      "inputs": [],
      "stateMutability": "nonpayable",
      "type": "constructor"
    },
    {
      "anonymous": false,
      "inputs": [
        {
          "indexed": true,
          "internalType": "address",
          "name": "owner",
          "type": "address"
        },
        {
          "indexed": true,
          "internalType": "address",
          "name": "approved",
          "type": "address"
        },
        {
          "indexed": true,
          "internalType": "uint256",
          "name": "tokenId",
          "type": "uint256"
        }
      ],
      "name": "Approval",
      "type": "event"
    },
    {
      "anonymous": false,
      "inputs": [
        {
          "indexed": true,
          "internalType": "address",
          "name": "owner",
          "type": "address"
        },
        {
          "indexed": true,
          "internalType": "address",
          "name": "operator",
          "type": "address"
        },
        {
          "indexed": false,
          "internalType": "bool",
          "name": "approved",
          "type": "bool"
        }
      ],
      "name": "ApprovalForAll",
      "type": "event"
    },
    {
      "anonymous": false,
      "inputs": [
        {
          "indexed": false,
          "internalType": "uint256",
          "name": "tokenId",
          "type": "uint256"
        },
        {
          "indexed": false,
          "internalType": "address",
          "name": "unlockerAddress",
          "type": "address"
        }
      ],
      "name": "NFTMinted",
      "type": "event"
    },
    {
      "anonymous": false,
      "inputs": [
        {
          "indexed": true,
          "internalType": "address",
          "name": "previousOwner",
          "type": "address"
        },
        {
          "indexed": true,
          "internalType": "address",
          "name": "newOwner",
          "type": "address"
        }
      ],
      "name": "OwnershipTransferred",
      "type": "event"
    },
    {
      "anonymous": false,
      "inputs": [
        {
          "indexed": true,
          "internalType": "address",
          "name": "from",
          "type": "address"
        },
        {
          "indexed": true,
          "internalType": "address",
          "name": "to",
          "type": "address"
        },
        {
          "indexed": true,
          "internalType": "uint256",
          "name": "tokenId",
          "type": "uint256"
        }
      ],
      "name": "Transfer",
      "type": "event"
    },
    {
      "inputs": [
        {
          "internalType": "address",
          "name": "to",
          "type": "address"
        },
        {
          "internalType": "uint256",
          "name": "tokenId",
          "type": "uint256"
        }
      ],
      "name": "approve",
      "outputs": [],
      "stateMutability": "nonpayable",
      "type": "function"
    },
    {
      "inputs": [
        {
          "internalType": "address",
          "name": "owner",
          "type": "address"
        }
      ],
      "name": "balanceOf",
      "outputs": [
        {
          "internalType": "uint256",
          "name": "",
          "type": "uint256"
        }
      ],
      "stateMutability": "view",
      "type": "function",
      "constant": true
    },
    {
      "inputs": [
        {
          "internalType": "uint256",
          "name": "tokenId",
          "type": "uint256"
        }
      ],
      "name": "getApproved",
      "outputs": [
        {
          "internalType": "address",
          "name": "",
          "type": "address"
        }
      ],
      "stateMutability": "view",
      "type": "function",
      "constant": true
    },
    {
      "inputs": [
        {
          "internalType": "address",
          "name": "owner",
          "type": "address"
        },
        {
          "internalType": "address",
          "name": "operator",
          "type": "address"
        }
      ],
      "name": "isApprovedForAll",
      "outputs": [
        {
          "internalType": "bool",
          "name": "",
          "type": "bool"
        }
      ],
      "stateMutability": "view",
      "type": "function",
      "constant": true
    },
    {
      "inputs": [],
      "name": "name",
      "outputs": [
        {
          "internalType": "string",
          "name": "",
          "type": "string"
        }
      ],
      "stateMutability": "view",
      "type": "function",
      "constant": true
    },
    {
      "inputs": [],
      "name": "owner",
      "outputs": [
        {
          "internalType": "address",
          "name": "",
          "type": "address"
        }
      ],
      "stateMutability": "view",
      "type": "function",
      "constant": true
    },
    {
      "inputs": [
        {
          "internalType": "uint256",
          "name": "tokenId",
          "type": "uint256"
        }
      ],
      "name": "ownerOf",
      "outputs": [
        {
          "internalType": "address",
          "name": "",
          "type": "address"
        }
      ],
      "stateMutability": "view",
      "type": "function",
      "constant": true
    },
    {
      "inputs": [],
      "name": "renounceOwnership",
      "outputs": [],
      "stateMutability": "nonpayable",
      "type": "function"
    },
    {
      "inputs": [
        {
          "internalType": "address",
          "name": "from",
          "type": "address"
        },
        {
          "internalType": "address",
          "name": "to",
          "type": "address"
        },
        {
          "internalType": "uint256",
          "name": "tokenId",
          "type": "uint256"
        }
      ],
      "name": "safeTransferFrom",
      "outputs": [],
      "stateMutability": "nonpayable",
      "type": "function"
    },
    {
      "inputs": [
        {
          "internalType": "address",
          "name": "from",
          "type": "address"
        },
        {
          "internalType": "address",
          "name": "to",
          "type": "address"
        },
        {
          "internalType": "uint256",
          "name": "tokenId",
          "type": "uint256"
        },
        {
          "internalType": "bytes",
          "name": "_data",
          "type": "bytes"
        }
      ],
      "name": "safeTransferFrom",
      "outputs": [],
      "stateMutability": "nonpayable",
      "type": "function"
    },
    {
      "inputs": [
        {
          "internalType": "address",
          "name": "operator",
          "type": "address"
        },
        {
          "internalType": "bool",
          "name": "approved",
          "type": "bool"
        }
      ],
      "name": "setApprovalForAll",
      "outputs": [],
      "stateMutability": "nonpayable",
      "type": "function"
    },
    {
      "inputs": [
        {
          "internalType": "bytes4",
          "name": "interfaceId",
          "type": "bytes4"
        }
      ],
      "name": "supportsInterface",
      "outputs": [
        {
          "internalType": "bool",
          "name": "",
          "type": "bool"
        }
      ],
      "stateMutability": "view",
      "type": "function",
      "constant": true
    },
    {
      "inputs": [],
      "name": "symbol",
      "outputs": [
        {
          "internalType": "string",
          "name": "",
          "type": "string"
        }
      ],
      "stateMutability": "view",
      "type": "function",
      "constant": true
    },
    {
      "inputs": [
        {
          "internalType": "uint256",
          "name": "tokenId",
          "type": "uint256"
        }
      ],
      "name": "tokenURI",
      "outputs": [
        {
          "internalType": "string",
          "name": "",
          "type": "string"
        }
      ],
      "stateMutability": "view",
      "type": "function",
      "constant": true
    },
    {
      "inputs": [
        {
          "internalType": "address",
          "name": "from",
          "type": "address"
        },
        {
          "internalType": "address",
          "name": "to",
          "type": "address"
        },
        {
          "internalType": "uint256",
          "name": "tokenId",
          "type": "uint256"
        }
      ],
      "name": "transferFrom",
      "outputs": [],
      "stateMutability": "nonpayable",
      "type": "function"
    },
    {
      "inputs": [
        {
          "internalType": "address",
          "name": "newOwner",
          "type": "address"
        }
      ],
      "name": "transferOwnership",
      "outputs": [],
      "stateMutability": "nonpayable",
      "type": "function"
    },
    {
      "inputs": [
        {
          "internalType": "string",
          "name": "tokenURI",
          "type": "string"
        }
      ],
      "name": "mintNFT",
      "outputs": [
        {
          "internalType": "uint256",
          "name": "",
          "type": "uint256"
        }
      ],
      "stateMutability": "nonpayable",
      "type": "function"
    }
  ],
  "bytecode": "0x60806040523480156200001157600080fd5b506040518060400160405280600981526020017f53656e7279754e465400000000000000000000000000000000000000000000008152506040518060400160405280600381526020017f4e46540000000000000000000000000000000000000000000000000000000000815250816000908051906020019062000096929190620001a6565b508060019080519060200190620000af929190620001a6565b505050620000d2620000c6620000d860201b60201c565b620000e060201b60201c565b620002bb565b600033905090565b6000600760009054906101000a900473ffffffffffffffffffffffffffffffffffffffff16905081600760006101000a81548173ffffffffffffffffffffffffffffffffffffffff021916908373ffffffffffffffffffffffffffffffffffffffff1602179055508173ffffffffffffffffffffffffffffffffffffffff168173ffffffffffffffffffffffffffffffffffffffff167f8be0079c531659141344cd1fd0a4f28419497f9722a3daafe3b4186f6b6457e060405160405180910390a35050565b828054620001b49062000285565b90600052602060002090601f016020900481019282620001d8576000855562000224565b82601f10620001f357805160ff191683800117855562000224565b8280016001018555821562000224579182015b828111156200022357825182559160200191906001019062000206565b5b50905062000233919062000237565b5090565b5b808211156200025257600081600090555060010162000238565b5090565b7f4e487b7100000000000000000000000000000000000000000000000000000000600052602260045260246000fd5b600060028204905060018216806200029e57607f821691505b60208210811415620002b557620002b462000256565b5b50919050565b61305f80620002cb6000396000f3fe608060405234801561001057600080fd5b506004361061010b5760003560e01c8063715018a6116100a2578063b88d4fde11610071578063b88d4fde146102a4578063c87b56dd146102c0578063e985e9c5146102f0578063f2fde38b14610320578063fb37e8831461033c5761010b565b8063715018a6146102425780638da5cb5b1461024c57806395d89b411461026a578063a22cb465146102885761010b565b806323b872dd116100de57806323b872dd146101aa57806342842e0e146101c65780636352211e146101e257806370a08231146102125761010b565b806301ffc9a71461011057806306fdde0314610140578063081812fc1461015e578063095ea7b31461018e575b600080fd5b61012a60048036038101906101259190611cad565b61036c565b6040516101379190611cf5565b60405180910390f35b61014861044e565b6040516101559190611da9565b60405180910390f35b61017860048036038101906101739190611e01565b6104e0565b6040516101859190611e6f565b60405180910390f35b6101a860048036038101906101a39190611eb6565b610565565b005b6101c460048036038101906101bf9190611ef6565b61067d565b005b6101e060048036038101906101db9190611ef6565b6106dd565b005b6101fc60048036038101906101f79190611e01565b6106fd565b6040516102099190611e6f565b60405180910390f35b61022c60048036038101906102279190611f49565b6107af565b6040516102399190611f85565b60405180910390f35b61024a610867565b005b6102546108ef565b6040516102619190611e6f565b60405180910390f35b610272610919565b60405161027f9190611da9565b60405180910390f35b6102a2600480360381019061029d9190611fcc565b6109ab565b005b6102be60048036038101906102b99190612141565b6109c1565b005b6102da60048036038101906102d59190611e01565b610a23565b6040516102e79190611da9565b60405180910390f35b61030a600480360381019061030591906121c4565b610b75565b6040516103179190611cf5565b60405180910390f35b61033a60048036038101906103359190611f49565b610c09565b005b610356600480360381019061035191906122a5565b610d01565b6040516103639190611f85565b60405180910390f35b60007f80ac58cd000000000000000000000000000000000000000000000000000000007bffffffffffffffffffffffffffffffffffffffffffffffffffffffff1916827bffffffffffffffffffffffffffffffffffffffffffffffffffffffff1916148061043757507f5b5e139f000000000000000000000000000000000000000000000000000000007bffffffffffffffffffffffffffffffffffffffffffffffffffffffff1916827bffffffffffffffffffffffffffffffffffffffffffffffffffffffff1916145b80610447575061044682610ded565b5b9050919050565b60606000805461045d9061231d565b80601f01602080910402602001604051908101604052809291908181526020018280546104899061231d565b80156104d65780601f106104ab576101008083540402835291602001916104d6565b820191906000526020600020905b8154815290600101906020018083116104b957829003601f168201915b5050505050905090565b60006104eb82610e57565b61052a576040517f08c379a0000000000000000000000000000000000000000000000000000000008152600401610521906123c1565b60405180910390fd5b6004600083815260200190815260200160002060009054906101000a900473ffffffffffffffffffffffffffffffffffffffff169050919050565b6000610570826106fd565b90508073ffffffffffffffffffffffffffffffffffffffff168373ffffffffffffffffffffffffffffffffffffffff1614156105e1576040517f08c379a00000000000000000000000000000000000000000000000000000000081526004016105d890612453565b60405180910390fd5b8073ffffffffffffffffffffffffffffffffffffffff16610600610ec3565b73ffffffffffffffffffffffffffffffffffffffff16148061062f575061062e81610629610ec3565b610b75565b5b61066e576040517f08c379a0000000000000000000000000000000000000000000000000000000008152600401610665906124e5565b60405180910390fd5b6106788383610ecb565b505050565b61068e610688610ec3565b82610f84565b6106cd576040517f08c379a00000000000000000000000000000000000000000000000000000000081526004016106c490612577565b60405180910390fd5b6106d8838383611062565b505050565b6106f8838383604051806020016040528060008152506109c1565b505050565b6000806002600084815260200190815260200160002060009054906101000a900473ffffffffffffffffffffffffffffffffffffffff169050600073ffffffffffffffffffffffffffffffffffffffff168173ffffffffffffffffffffffffffffffffffffffff1614156107a6576040517f08c379a000000000000000000000000000000000000000000000000000000000815260040161079d90612609565b60405180910390fd5b80915050919050565b60008073ffffffffffffffffffffffffffffffffffffffff168273ffffffffffffffffffffffffffffffffffffffff161415610820576040517f08c379a00000000000000000000000000000000000000000000000000000000081526004016108179061269b565b60405180910390fd5b600360008373ffffffffffffffffffffffffffffffffffffffff1673ffffffffffffffffffffffffffffffffffffffff168152602001908152602001600020549050919050565b61086f610ec3565b73ffffffffffffffffffffffffffffffffffffffff1661088d6108ef565b73ffffffffffffffffffffffffffffffffffffffff16146108e3576040517f08c379a00000000000000000000000000000000000000000000000000000000081526004016108da90612707565b60405180910390fd5b6108ed60006112c9565b565b6000600760009054906101000a900473ffffffffffffffffffffffffffffffffffffffff16905090565b6060600180546109289061231d565b80601f01602080910402602001604051908101604052809291908181526020018280546109549061231d565b80156109a15780601f10610976576101008083540402835291602001916109a1565b820191906000526020600020905b81548152906001019060200180831161098457829003601f168201915b5050505050905090565b6109bd6109b6610ec3565b838361138f565b5050565b6109d26109cc610ec3565b83610f84565b610a11576040517f08c379a0000000000000000000000000000000000000000000000000000000008152600401610a0890612577565b60405180910390fd5b610a1d848484846114fc565b50505050565b6060610a2e82610e57565b610a6d576040517f08c379a0000000000000000000000000000000000000000000000000000000008152600401610a6490612799565b60405180910390fd5b6000600660008481526020019081526020016000208054610a8d9061231d565b80601f0160208091040260200160405190810160405280929190818152602001828054610ab99061231d565b8015610b065780601f10610adb57610100808354040283529160200191610b06565b820191906000526020600020905b815481529060010190602001808311610ae957829003601f168201915b505050505090506000610b17611558565b9050600081511415610b2d578192505050610b70565b600082511115610b62578082604051602001610b4a9291906127f5565b60405160208183030381529060405292505050610b70565b610b6b8461156f565b925050505b919050565b6000600560008473ffffffffffffffffffffffffffffffffffffffff1673ffffffffffffffffffffffffffffffffffffffff16815260200190815260200160002060008373ffffffffffffffffffffffffffffffffffffffff1673ffffffffffffffffffffffffffffffffffffffff16815260200190815260200160002060009054906101000a900460ff16905092915050565b610c11610ec3565b73ffffffffffffffffffffffffffffffffffffffff16610c2f6108ef565b73ffffffffffffffffffffffffffffffffffffffff1614610c85576040517f08c379a0000000000000000000000000000000000000000000000000000000008152600401610c7c90612707565b60405180910390fd5b600073ffffffffffffffffffffffffffffffffffffffff168173ffffffffffffffffffffffffffffffffffffffff161415610cf5576040517f08c379a0000000000000000000000000000000000000000000000000000000008152600401610cec9061288b565b60405180910390fd5b610cfe816112c9565b50565b6000610d0b610ec3565b73ffffffffffffffffffffffffffffffffffffffff16610d296108ef565b73ffffffffffffffffffffffffffffffffffffffff1614610d7f576040517f08c379a0000000000000000000000000000000000000000000000000000000008152600401610d7690612707565b60405180910390fd5b610d896008611616565b6000610d95600861162c565b9050610da1338261163a565b7f0176f203df400d7bd5f1b1c9ef36c16709bf3b5d9fd35f000a6bae32393f66c38133604051610dd29291906128ab565b60405180910390a1610de48184611814565b80915050919050565b60007f01ffc9a7000000000000000000000000000000000000000000000000000000007bffffffffffffffffffffffffffffffffffffffffffffffffffffffff1916827bffffffffffffffffffffffffffffffffffffffffffffffffffffffff1916149050919050565b60008073ffffffffffffffffffffffffffffffffffffffff166002600084815260200190815260200160002060009054906101000a900473ffffffffffffffffffffffffffffffffffffffff1673ffffffffffffffffffffffffffffffffffffffff1614159050919050565b600033905090565b816004600083815260200190815260200160002060006101000a81548173ffffffffffffffffffffffffffffffffffffffff021916908373ffffffffffffffffffffffffffffffffffffffff160217905550808273ffffffffffffffffffffffffffffffffffffffff16610f3e836106fd565b73ffffffffffffffffffffffffffffffffffffffff167f8c5be1e5ebec7d5bd14f71427d1e84f3dd0314c0f7b2291e5b200ac8c7c3b92560405160405180910390a45050565b6000610f8f82610e57565b610fce576040517f08c379a0000000000000000000000000000000000000000000000000000000008152600401610fc590612946565b60405180910390fd5b6000610fd9836106fd565b90508073ffffffffffffffffffffffffffffffffffffffff168473ffffffffffffffffffffffffffffffffffffffff16148061104857508373ffffffffffffffffffffffffffffffffffffffff16611030846104e0565b73ffffffffffffffffffffffffffffffffffffffff16145b8061105957506110588185610b75565b5b91505092915050565b8273ffffffffffffffffffffffffffffffffffffffff16611082826106fd565b73ffffffffffffffffffffffffffffffffffffffff16146110d8576040517f08c379a00000000000000000000000000000000000000000000000000000000081526004016110cf906129d8565b60405180910390fd5b600073ffffffffffffffffffffffffffffffffffffffff168273ffffffffffffffffffffffffffffffffffffffff161415611148576040517f08c379a000000000000000000000000000000000000000000000000000000000815260040161113f90612a6a565b60405180910390fd5b611153838383611888565b61115e600082610ecb565b6001600360008573ffffffffffffffffffffffffffffffffffffffff1673ffffffffffffffffffffffffffffffffffffffff16815260200190815260200160002060008282546111ae9190612ab9565b925050819055506001600360008473ffffffffffffffffffffffffffffffffffffffff1673ffffffffffffffffffffffffffffffffffffffff16815260200190815260200160002060008282546112059190612aed565b92505081905550816002600083815260200190815260200160002060006101000a81548173ffffffffffffffffffffffffffffffffffffffff021916908373ffffffffffffffffffffffffffffffffffffffff160217905550808273ffffffffffffffffffffffffffffffffffffffff168473ffffffffffffffffffffffffffffffffffffffff167fddf252ad1be2c89b69c2b068fc378daa952ba7f163c4a11628f55a4df523b3ef60405160405180910390a46112c483838361188d565b505050565b6000600760009054906101000a900473ffffffffffffffffffffffffffffffffffffffff16905081600760006101000a81548173ffffffffffffffffffffffffffffffffffffffff021916908373ffffffffffffffffffffffffffffffffffffffff1602179055508173ffffffffffffffffffffffffffffffffffffffff168173ffffffffffffffffffffffffffffffffffffffff167f8be0079c531659141344cd1fd0a4f28419497f9722a3daafe3b4186f6b6457e060405160405180910390a35050565b8173ffffffffffffffffffffffffffffffffffffffff168373ffffffffffffffffffffffffffffffffffffffff1614156113fe576040517f08c379a00000000000000000000000000000000000000000000000000000000081526004016113f590612b8f565b60405180910390fd5b80600560008573ffffffffffffffffffffffffffffffffffffffff1673ffffffffffffffffffffffffffffffffffffffff16815260200190815260200160002060008473ffffffffffffffffffffffffffffffffffffffff1673ffffffffffffffffffffffffffffffffffffffff16815260200190815260200160002060006101000a81548160ff0219169083151502179055508173ffffffffffffffffffffffffffffffffffffffff168373ffffffffffffffffffffffffffffffffffffffff167f17307eab39ab6107e8899845ad3d59bd9653f200f220920489ca2b5937696c31836040516114ef9190611cf5565b60405180910390a3505050565b611507848484611062565b61151384848484611892565b611552576040517f08c379a000000000000000000000000000000000000000000000000000000000815260040161154990612c21565b60405180910390fd5b50505050565b606060405180602001604052806000815250905090565b606061157a82610e57565b6115b9576040517f08c379a00000000000000000000000000000000000000000000000000000000081526004016115b090612cb3565b60405180910390fd5b60006115c3611558565b905060008151116115e3576040518060200160405280600081525061160e565b806115ed84611a1a565b6040516020016115fe9291906127f5565b6040516020818303038152906040525b915050919050565b6001816000016000828254019250508190555050565b600081600001549050919050565b600073ffffffffffffffffffffffffffffffffffffffff168273ffffffffffffffffffffffffffffffffffffffff1614156116aa576040517f08c379a00000000000000000000000000000000000000000000000000000000081526004016116a190612d1f565b60405180910390fd5b6116b381610e57565b156116f3576040517f08c379a00000000000000000000000000000000000000000000000000000000081526004016116ea90612d8b565b60405180910390fd5b6116ff60008383611888565b6001600360008473ffffffffffffffffffffffffffffffffffffffff1673ffffffffffffffffffffffffffffffffffffffff168152602001908152602001600020600082825461174f9190612aed565b92505081905550816002600083815260200190815260200160002060006101000a81548173ffffffffffffffffffffffffffffffffffffffff021916908373ffffffffffffffffffffffffffffffffffffffff160217905550808273ffffffffffffffffffffffffffffffffffffffff16600073ffffffffffffffffffffffffffffffffffffffff167fddf252ad1be2c89b69c2b068fc378daa952ba7f163c4a11628f55a4df523b3ef60405160405180910390a46118106000838361188d565b5050565b61181d82610e57565b61185c576040517f08c379a000000000000000000000000000000000000000000000000000000000815260040161185390612e1d565b60405180910390fd5b80600660008481526020019081526020016000209080519060200190611883929190611b9e565b505050565b505050565b505050565b60006118b38473ffffffffffffffffffffffffffffffffffffffff16611b7b565b15611a0d578373ffffffffffffffffffffffffffffffffffffffff1663150b7a026118dc610ec3565b8786866040518563ffffffff1660e01b81526004016118fe9493929190612e92565b6020604051808303816000875af192505050801561193a57506040513d601f19601f820116820180604052508101906119379190612ef3565b60015b6119bd573d806000811461196a576040519150601f19603f3d011682016040523d82523d6000602084013e61196f565b606091505b506000815114156119b5576040517f08c379a00000000000000000000000000000000000000000000000000000000081526004016119ac90612c21565b60405180910390fd5b805181602001fd5b63150b7a0260e01b7bffffffffffffffffffffffffffffffffffffffffffffffffffffffff1916817bffffffffffffffffffffffffffffffffffffffffffffffffffffffff191614915050611a12565b600190505b949350505050565b60606000821415611a62576040518060400160405280600181526020017f30000000000000000000000000000000000000000000000000000000000000008152509050611b76565b600082905060005b60008214611a94578080611a7d90612f20565b915050600a82611a8d9190612f98565b9150611a6a565b60008167ffffffffffffffff811115611ab057611aaf612016565b5b6040519080825280601f01601f191660200182016040528015611ae25781602001600182028036833780820191505090505b5090505b60008514611b6f57600182611afb9190612ab9565b9150600a85611b0a9190612fc9565b6030611b169190612aed565b60f81b818381518110611b2c57611b2b612ffa565b5b60200101907effffffffffffffffffffffffffffffffffffffffffffffffffffffffffffff1916908160001a905350600a85611b689190612f98565b9450611ae6565b8093505050505b919050565b6000808273ffffffffffffffffffffffffffffffffffffffff163b119050919050565b828054611baa9061231d565b90600052602060002090601f016020900481019282611bcc5760008555611c13565b82601f10611be557805160ff1916838001178555611c13565b82800160010185558215611c13579182015b82811115611c12578251825591602001919060010190611bf7565b5b509050611c209190611c24565b5090565b5b80821115611c3d576000816000905550600101611c25565b5090565b6000604051905090565b600080fd5b600080fd5b60007fffffffff0000000000000000000000000000000000000000000000000000000082169050919050565b611c8a81611c55565b8114611c9557600080fd5b50565b600081359050611ca781611c81565b92915050565b600060208284031215611cc357611cc2611c4b565b5b6000611cd184828501611c98565b91505092915050565b60008115159050919050565b611cef81611cda565b82525050565b6000602082019050611d0a6000830184611ce6565b92915050565b600081519050919050565b600082825260208201905092915050565b60005b83811015611d4a578082015181840152602081019050611d2f565b83811115611d59576000848401525b50505050565b6000601f19601f8301169050919050565b6000611d7b82611d10565b611d858185611d1b565b9350611d95818560208601611d2c565b611d9e81611d5f565b840191505092915050565b60006020820190508181036000830152611dc38184611d70565b905092915050565b6000819050919050565b611dde81611dcb565b8114611de957600080fd5b50565b600081359050611dfb81611dd5565b92915050565b600060208284031215611e1757611e16611c4b565b5b6000611e2584828501611dec565b91505092915050565b600073ffffffffffffffffffffffffffffffffffffffff82169050919050565b6000611e5982611e2e565b9050919050565b611e6981611e4e565b82525050565b6000602082019050611e846000830184611e60565b92915050565b611e9381611e4e565b8114611e9e57600080fd5b50565b600081359050611eb081611e8a565b92915050565b60008060408385031215611ecd57611ecc611c4b565b5b6000611edb85828601611ea1565b9250506020611eec85828601611dec565b9150509250929050565b600080600060608486031215611f0f57611f0e611c4b565b5b6000611f1d86828701611ea1565b9350506020611f2e86828701611ea1565b9250506040611f3f86828701611dec565b9150509250925092565b600060208284031215611f5f57611f5e611c4b565b5b6000611f6d84828501611ea1565b91505092915050565b611f7f81611dcb565b82525050565b6000602082019050611f9a6000830184611f76565b92915050565b611fa981611cda565b8114611fb457600080fd5b50565b600081359050611fc681611fa0565b92915050565b60008060408385031215611fe357611fe2611c4b565b5b6000611ff185828601611ea1565b925050602061200285828601611fb7565b9150509250929050565b600080fd5b600080fd5b7f4e487b7100000000000000000000000000000000000000000000000000000000600052604160045260246000fd5b61204e82611d5f565b810181811067ffffffffffffffff8211171561206d5761206c612016565b5b80604052505050565b6000612080611c41565b905061208c8282612045565b919050565b600067ffffffffffffffff8211156120ac576120ab612016565b5b6120b582611d5f565b9050602081019050919050565b82818337600083830152505050565b60006120e46120df84612091565b612076565b905082815260208101848484011115612100576120ff612011565b5b61210b8482856120c2565b509392505050565b600082601f8301126121285761212761200c565b5b81356121388482602086016120d1565b91505092915050565b6000806000806080858703121561215b5761215a611c4b565b5b600061216987828801611ea1565b945050602061217a87828801611ea1565b935050604061218b87828801611dec565b925050606085013567ffffffffffffffff8111156121ac576121ab611c50565b5b6121b887828801612113565b91505092959194509250565b600080604083850312156121db576121da611c4b565b5b60006121e985828601611ea1565b92505060206121fa85828601611ea1565b9150509250929050565b600067ffffffffffffffff82111561221f5761221e612016565b5b61222882611d5f565b9050602081019050919050565b600061224861224384612204565b612076565b90508281526020810184848401111561226457612263612011565b5b61226f8482856120c2565b509392505050565b600082601f83011261228c5761228b61200c565b5b813561229c848260208601612235565b91505092915050565b6000602082840312156122bb576122ba611c4b565b5b600082013567ffffffffffffffff8111156122d9576122d8611c50565b5b6122e584828501612277565b91505092915050565b7f4e487b7100000000000000000000000000000000000000000000000000000000600052602260045260246000fd5b6000600282049050600182168061233557607f821691505b60208210811415612349576123486122ee565b5b50919050565b7f4552433732313a20617070726f76656420717565727920666f72206e6f6e657860008201527f697374656e7420746f6b656e0000000000000000000000000000000000000000602082015250565b60006123ab602c83611d1b565b91506123b68261234f565b604082019050919050565b600060208201905081810360008301526123da8161239e565b9050919050565b7f4552433732313a20617070726f76616c20746f2063757272656e74206f776e6560008201527f7200000000000000000000000000000000000000000000000000000000000000602082015250565b600061243d602183611d1b565b9150612448826123e1565b604082019050919050565b6000602082019050818103600083015261246c81612430565b9050919050565b7f4552433732313a20617070726f76652063616c6c6572206973206e6f74206f7760008201527f6e6572206e6f7220617070726f76656420666f7220616c6c0000000000000000602082015250565b60006124cf603883611d1b565b91506124da82612473565b604082019050919050565b600060208201905081810360008301526124fe816124c2565b9050919050565b7f4552433732313a207472616e736665722063616c6c6572206973206e6f74206f60008201527f776e6572206e6f7220617070726f766564000000000000000000000000000000602082015250565b6000612561603183611d1b565b915061256c82612505565b604082019050919050565b6000602082019050818103600083015261259081612554565b9050919050565b7f4552433732313a206f776e657220717565727920666f72206e6f6e657869737460008201527f656e7420746f6b656e0000000000000000000000000000000000000000000000602082015250565b60006125f3602983611d1b565b91506125fe82612597565b604082019050919050565b60006020820190508181036000830152612622816125e6565b9050919050565b7f4552433732313a2062616c616e636520717565727920666f7220746865207a6560008201527f726f206164647265737300000000000000000000000000000000000000000000602082015250565b6000612685602a83611d1b565b915061269082612629565b604082019050919050565b600060208201905081810360008301526126b481612678565b9050919050565b7f4f776e61626c653a2063616c6c6572206973206e6f7420746865206f776e6572600082015250565b60006126f1602083611d1b565b91506126fc826126bb565b602082019050919050565b60006020820190508181036000830152612720816126e4565b9050919050565b7f45524337323155524953746f726167653a2055524920717565727920666f722060008201527f6e6f6e6578697374656e7420746f6b656e000000000000000000000000000000602082015250565b6000612783603183611d1b565b915061278e82612727565b604082019050919050565b600060208201905081810360008301526127b281612776565b9050919050565b600081905092915050565b60006127cf82611d10565b6127d981856127b9565b93506127e9818560208601611d2c565b80840191505092915050565b600061280182856127c4565b915061280d82846127c4565b91508190509392505050565b7f4f776e61626c653a206e6577206f776e657220697320746865207a65726f206160008201527f6464726573730000000000000000000000000000000000000000000000000000602082015250565b6000612875602683611d1b565b915061288082612819565b604082019050919050565b600060208201905081810360008301526128a481612868565b9050919050565b60006040820190506128c06000830185611f76565b6128cd6020830184611e60565b9392505050565b7f4552433732313a206f70657261746f7220717565727920666f72206e6f6e657860008201527f697374656e7420746f6b656e0000000000000000000000000000000000000000602082015250565b6000612930602c83611d1b565b915061293b826128d4565b604082019050919050565b6000602082019050818103600083015261295f81612923565b9050919050565b7f4552433732313a207472616e736665722066726f6d20696e636f72726563742060008201527f6f776e6572000000000000000000000000000000000000000000000000000000602082015250565b60006129c2602583611d1b565b91506129cd82612966565b604082019050919050565b600060208201905081810360008301526129f1816129b5565b9050919050565b7f4552433732313a207472616e7366657220746f20746865207a65726f2061646460008201527f7265737300000000000000000000000000000000000000000000000000000000602082015250565b6000612a54602483611d1b565b9150612a5f826129f8565b604082019050919050565b60006020820190508181036000830152612a8381612a47565b9050919050565b7f4e487b7100000000000000000000000000000000000000000000000000000000600052601160045260246000fd5b6000612ac482611dcb565b9150612acf83611dcb565b925082821015612ae257612ae1612a8a565b5b828203905092915050565b6000612af882611dcb565b9150612b0383611dcb565b9250827fffffffffffffffffffffffffffffffffffffffffffffffffffffffffffffffff03821115612b3857612b37612a8a565b5b828201905092915050565b7f4552433732313a20617070726f766520746f2063616c6c657200000000000000600082015250565b6000612b79601983611d1b565b9150612b8482612b43565b602082019050919050565b60006020820190508181036000830152612ba881612b6c565b9050919050565b7f4552433732313a207472616e7366657220746f206e6f6e20455243373231526560008201527f63656976657220696d706c656d656e7465720000000000000000000000000000602082015250565b6000612c0b603283611d1b565b9150612c1682612baf565b604082019050919050565b60006020820190508181036000830152612c3a81612bfe565b9050919050565b7f4552433732314d657461646174613a2055524920717565727920666f72206e6f60008201527f6e6578697374656e7420746f6b656e0000000000000000000000000000000000602082015250565b6000612c9d602f83611d1b565b9150612ca882612c41565b604082019050919050565b60006020820190508181036000830152612ccc81612c90565b9050919050565b7f4552433732313a206d696e7420746f20746865207a65726f2061646472657373600082015250565b6000612d09602083611d1b565b9150612d1482612cd3565b602082019050919050565b60006020820190508181036000830152612d3881612cfc565b9050919050565b7f4552433732313a20746f6b656e20616c7265616479206d696e74656400000000600082015250565b6000612d75601c83611d1b565b9150612d8082612d3f565b602082019050919050565b60006020820190508181036000830152612da481612d68565b9050919050565b7f45524337323155524953746f726167653a2055524920736574206f66206e6f6e60008201527f6578697374656e7420746f6b656e000000000000000000000000000000000000602082015250565b6000612e07602e83611d1b565b9150612e1282612dab565b604082019050919050565b60006020820190508181036000830152612e3681612dfa565b9050919050565b600081519050919050565b600082825260208201905092915050565b6000612e6482612e3d565b612e6e8185612e48565b9350612e7e818560208601611d2c565b612e8781611d5f565b840191505092915050565b6000608082019050612ea76000830187611e60565b612eb46020830186611e60565b612ec16040830185611f76565b8181036060830152612ed38184612e59565b905095945050505050565b600081519050612eed81611c81565b92915050565b600060208284031215612f0957612f08611c4b565b5b6000612f1784828501612ede565b91505092915050565b6000612f2b82611dcb565b91507fffffffffffffffffffffffffffffffffffffffffffffffffffffffffffffffff821415612f5e57612f5d612a8a565b5b600182019050919050565b7f4e487b7100000000000000000000000000000000000000000000000000000000600052601260045260246000fd5b6000612fa382611dcb565b9150612fae83611dcb565b925082612fbe57612fbd612f69565b5b828204905092915050565b6000612fd482611dcb565b9150612fdf83611dcb565b925082612fef57612fee612f69565b5b828206905092915050565b7f4e487b7100000000000000000000000000000000000000000000000000000000600052603260045260246000fdfea264697066735822122087c2a51c1f040b2d1d43f86d569a151854e7b464a95e9bcdf35a7d3a9ee9cafa64736f6c634300080b0033",
  "immutableReferences": {},
  "source": "// SPDX-License-Identifier: MIT\npragma solidity 0.8.11;\n\nimport \"@openzeppelin/contracts/token/ERC721/extensions/ERC721URIStorage.sol\";\nimport \"@openzeppelin/contracts/access/Ownable.sol\";\nimport \"@openzeppelin/contracts/utils/Counters.sol\";\n\n\n/// @title An NFT containing image of a senryu (or haiku, if you want to stick to a specific topic)\n/// @author Dan Yunheum Seol (dan-seol)\n/// @notice You can use this contract to mint a senryu nft\ncontract SenryuNFT is ERC721URIStorage, Ownable {\n        \n    using Counters for Counters.Counter;\n\n    Counters.Counter private _tokenIds;\n\n    event NFTMinted(uint256 tokenId, address unlockerAddress);\n\n    constructor() ERC721(\"SenryuNFT\", \"NFT\") {\n    }\n\n    /// @notice Mint the NFT\n    /// @dev A standard ERC721 minting\n    /// @param tokenURI is the nft metadata\n    /// @return the new token id generated by the counter\n    function mintNFT(string memory tokenURI) public onlyOwner returns (uint256) {\n        _tokenIds.increment();\n\n        uint256 newTokenId = _tokenIds.current();\n        _mint(msg.sender, newTokenId);\n        emit NFTMinted(newTokenId, msg.sender);\n        _setTokenURI(newTokenId, tokenURI);\n\n        return newTokenId;\n    }  \n}",
  "sourcePath": "/home/danseol/Documents/Github/blockchain-developer-bootcamp-final-project/contracts/SenryuNFT.sol",
  "compiler": {
    "name": "solc",
    "version": "0.8.11+commit.d7f03943.Emscripten.clang"
  },
  "schemaVersion": "3.4.4",
  "updatedAt": "2022-02-15T16:23:43.493Z",
  "networkType": "ethereum",
  "devdoc": {
    "author": "Dan Yunheum Seol (dan-seol)",
    "kind": "dev",
    "methods": {
      "approve(address,uint256)": {
        "details": "See {IERC721-approve}."
      },
      "balanceOf(address)": {
        "details": "See {IERC721-balanceOf}."
      },
      "getApproved(uint256)": {
        "details": "See {IERC721-getApproved}."
      },
      "isApprovedForAll(address,address)": {
        "details": "See {IERC721-isApprovedForAll}."
      },
      "mintNFT(string)": {
        "details": "A standard ERC721 minting",
        "params": {
          "tokenURI": "is the nft metadata"
        },
        "returns": {
          "_0": "the new token id generated by the counter"
        }
      },
      "name()": {
        "details": "See {IERC721Metadata-name}."
      },
      "owner()": {
        "details": "Returns the address of the current owner."
      },
      "ownerOf(uint256)": {
        "details": "See {IERC721-ownerOf}."
      },
      "renounceOwnership()": {
        "details": "Leaves the contract without owner. It will not be possible to call `onlyOwner` functions anymore. Can only be called by the current owner. NOTE: Renouncing ownership will leave the contract without an owner, thereby removing any functionality that is only available to the owner."
      },
      "safeTransferFrom(address,address,uint256)": {
        "details": "See {IERC721-safeTransferFrom}."
      },
      "safeTransferFrom(address,address,uint256,bytes)": {
        "details": "See {IERC721-safeTransferFrom}."
      },
      "setApprovalForAll(address,bool)": {
        "details": "See {IERC721-setApprovalForAll}."
      },
      "supportsInterface(bytes4)": {
        "details": "See {IERC165-supportsInterface}."
      },
      "symbol()": {
        "details": "See {IERC721Metadata-symbol}."
      },
      "tokenURI(uint256)": {
        "details": "See {IERC721Metadata-tokenURI}."
      },
      "transferFrom(address,address,uint256)": {
        "details": "See {IERC721-transferFrom}."
      },
      "transferOwnership(address)": {
        "details": "Transfers ownership of the contract to a new account (`newOwner`). Can only be called by the current owner."
      }
    },
    "title": "An NFT containing image of a senryu (or haiku, if you want to stick to a specific topic)",
    "version": 1
  },
  "userdoc": {
    "kind": "user",
    "methods": {
      "mintNFT(string)": {
        "notice": "Mint the NFT"
      }
    },
    "notice": "You can use this contract to mint a senryu nft",
    "version": 1
  }
}